:020000040800F2
:10000000B804002045010008DB1100086109000860
:10001000D9110008A90600085116000800000000C8
:1000200000000000000000000000000001140008B3
:10003000AB0600080000000041120008031400088D
:100040005F0100085F0100085F0100085F01000810
:100050005F0100085F010008010700085F01000858
:100060005F0100085F0100085F0100085F010008F0
:100070005F0100085F0100085F0100085F010008E0
:100080005F0100085F0100085F0100085F010008D0
:100090005F0100085F0100085F0100085F010008C0
:1000A0005F0100085F0100085F0100085F010008B0
:1000B0005F0100085F0100085F0100085F010008A0
:1000C0005F0100085F0100085F0100085F01000890
:1000D0005F010008F91400085F0100085F010008D3
:1000E000350700085F0100085F0100085F01000894
:1000F0005F0100085F0100085F0100085F01000860
:100100005F0100085F0100085F0100085F0100084F
:100110005F0100085F0100085F0100085F0100083F
:100120005F0100085F0100085F0100085F0100082F
:10013000DFF80CD000F018FA00480047511C000806
:10014000B80400200648804706480047FEE7FEE75F
:10015000FEE7FEE7FEE7FEE7FEE7FEE7FEE7FEE777
:10016000091400083101000830B50B460146002093
:100170002022012409E021FA02F59D4205D303FA69
:1001800002F5491B04FA02F52844151EA2F10102EA
:10019000F1DC30BD2DE9F05F0546002092469B461C
:1001A00088460646814640241BE02846414647468D
:1001B000224600F0FAF953465A46C01A914110D32C
:1001C00011461846224600F0E1F92D1A67EB0108A6
:1001D0004F4622460120002100F0D8F917EB000914
:1001E0004E41201EA4F10104DFDC484631462A4678
:1001F0004346BDE8F09F2DE9FE4F804681EA0300AB
:10020000C00F0C46009021F0004123F00045B8EBF0
:100210000200A94105D24046214690461C460B46A5
:10022000024623F00040104347D0270DC7F30A00D1
:10023000C3F30A510290401A019040286BDAC3F3CD
:10024000130040F4801B0098924620B10023D2EBAB
:10025000030A63EB0B0B01985946C0F1400250466C
:1002600000F094F906460D4650465946019A00F0B2
:10027000ACF910EB08006141002487EA115284EACE
:10028000E7731A4340D0009A62B3019A012A4FEAF9
:10029000075215DC001B61EB02014FF0004202EA3D
:1002A0000752CDE90042001C41F5801132462B4631
:1002B00000F0ACF903B0BDE8F08F40462146F9E705
:1002C000001B61EB0201001C41F5801300185B412B
:1002D0002018A2F5001747EB030140EAD570B619C4
:1002E0006D4111E06D084FEA360645EAC0754FEAE8
:1002F0000752001B61EB0201001C41F58011490807
:100300004FEA30000019514132462B4603B0BDE898
:10031000F04F00F06CB90098012240000023D0EBB0
:10032000020263EBE073009821464FEAE074B8EBF9
:10033000000061EB0401E9E783F000435BE781F033
:10034000004158E72DE9FE4F81EA030404F0004420
:1003500021F0004100944FF0000B23F0004350EADD
:1003600001045ED052EA03045BD0C3F30A54C1F324
:100370000A552C44A4F2F3340194A0FB0254C1F3B7
:10038000130141F48011C3F3130343F4801301FB01
:10039000024400FB034E840A970A44EA815447EA68
:1003A0008357A4FB076802958D0A05FB07854FEA72
:1003B000932C04FB0C542705029D4FEA065847EA8C
:1003C0001637B5EB08056EEB070C870E920E47EA61
:1003D000811742EA8312A7FB0201B6EB0B0164EB23
:1003E00000042B0D43EA0C335E1844EB1C50DA4634
:1003F0005146E7FB0201C5F313044FEA0B3343EA0E
:1004000014534FEA0432019C43EA0603A4F10C049E
:100410000294009CCDE900B400F0F8F803B0BDE808
:10042000F08F00200146F9E72DE9F04D81EA030441
:1004300004F0004B21F0004514464FF0000A23F071
:10044000004150EA050220D054EA01021DD0C5F354
:100450000A570246C5F31303C1F31300C1F30A564A
:1004600040F4801543F48013A7EB0608101BD64612
:1004700008F2FD3873EB050002D308F1010801E032
:1004800092185B41B8F1000F03DA00200146BDE885
:10049000F08D00204FF48011064684460EE0171BB5
:1004A00073EB050705D3121B63EB050306434CEA08
:1004B000010C49084FEA300092185B4150EA0107ED
:1004C000EDD152EA030012D082EA040083EA05016A
:1004D000084305D0101BAB4106D20122002306E0E1
:1004E00000224FF0004302E06FF0010253101AEBBC
:1004F00006004CEB085110EB0A0041EB0B01BDE884
:10050000F04D00F074B8C1F30A52C1F3130140F288
:10051000FF3341F480119A4202DA0020014670470D
:1005200040F233439A42A2F2334202DC524200F0DC
:100530003CB800F02BB8000030B5041E71F1000487
:1005400004DB4FF00044404264EB0101141E73F1E0
:10055000000405DB1C464FF00043524263EB0403EA
:10056000994208BF904230BD064C074D06E0E06856
:1005700040F0010394E8070098471034AC42F6D3EA
:10058000FFF7DAFD003E0008203E0008202A04DBC9
:10059000203A00FA02F1002070479140C2F1200396
:1005A00020FA03F3194390407047202A04DB203AD5
:1005B00021FA02F00021704721FA02F3D040C2F183
:1005C00020029140084319467047202A06DBCB17CA
:1005D000203A41FA02F043EAE07306E041FA02F3FE
:1005E000D040C2F12002914008431946704710B52F
:1005F000141E73F1000408DA401C41F10001921846
:100600005B411A4301D120F0010010BD2DE9F04DEE
:1006100092469B4611B1B1FA81F202E0B0FA80F243
:1006200020329046FFF7B2FF04460F4640EA0A0028
:1006300041EA0B0153465A46084313D0114653EA88
:10064000010019D0C8F140025046FFF7AEFF054641
:100650000E46504659464246FFF798FF084305D0DC
:10066000012004E020463946BDE8F08D0020054316
:1006700046EAE0762C4337430A986305E40AA0EB88
:1006800008000022FD0A44EA47540A3002D500203F
:100690000146E9E7010510196941DDE9084500193E
:1006A0006941BDE8F04DA2E7FEE770472DE9F84348
:1006B000124D4FF00008B8F1200F08BFBDE8F883D5
:1006C0000A2001F09BFF4FEA88090027042F11D070
:1006D00009EB07040026082E0AD0285DB04000066A
:1006E0004FF02A0058BF202001F088FF0136F2E7C2
:1006F0000137EBE708F10108DDE700BF2400002027
:1007000010B5012000F038F860B1094C01212046F5
:1007100000F018F9012805D104F58060202103229A
:1007200001F002F80120BDE8104000F01FB800BF42
:100730000008014010B54FF4005000F01DF860B102
:10074000094C4FF4005104F5806000F0FBF820B92B
:1007500020462021032200F0E7FF4FF40050BDE8BF
:10076000104000F003B800BF000C014001490860D0
:10077000704700BF1404014005490A68024018BFD1
:1007800001224969084018BF01201040704700BF8E
:100790000004014008490A6822F010020A600A6851
:1007A00010430860704700BF03490A6802F038022E
:1007B00010430860704700BF00200240B0B54FF002
:1007C0002042064C002952F8203043F0010508BFB2
:1007D00003EA040542F82050B0BD00BFFEFF0F0041
:1007E000F0B500F10807D0E900C1C269F8CF19439C
:1007F00021432943314300F12006394311437CCE84
:10080000114319432143294341EA06024FF0204195
:1008100041F82C208268082A06D1026851F822305B
:1008200043F0400341F82230426BD0F800C092E818
:10083000F800D2E9051243EA041343EA052343EA28
:10084000064343EA075343EA016111430E4A42F863
:100850002C10C16AB1F5804F0FD1816B91E81C005B
:10086000D1E90456896942EA031242EA042242EAC3
:10087000055242EA0662114301E06FF070410068E0
:10088000024A42F82010F0BD040000A0040100A0BC
:100890002DE9F04391F8039009F00F085FEAC9636E
:1008A00044BF8B7848EA030809880B0621D0046806
:1008B00000254FF0010E4FF00F0C0027082F17D026
:1008C0000EFA07F30B4210D00CFA05F208FA05F6FF
:1008D000B9F1480F24EA020242EA060404D0B9F151
:1008E000280F08BF436100E0036104350137E5E7E5
:1008F0000460B1F5807F23D3446800254FF4807EE7
:100900004FF00F0C0027082F19D00EFA07F606EA51
:100910000102B24210D10CFA05F308FA05F2B9F15E
:10092000480F24EA030343EA020404D0B9F1280F74
:1009300008BF466100E0066104350137E3E7446023
:10094000BDE8F0838068084018BF01207047C06888
:10095000084018BF0120704741617047016170472E
:10096000FEE700000146044800294FF0400108BF9F
:10097000FFF7F4BFFFF7F0BF00200140B0B51C4601
:10098000154600F0AFFBE84904FB05F04988BDE8D7
:10099000B04000F0CBB900BF81B00090009810B11A
:1009A00000980138F9E701B0704700002DE9F843DD
:1009B0001446324A1268D5889688176832462B4604
:1009C00000F090FB2C2000F0EBFB4FF6E07005FBF5
:1009D00006F14FF000092044C1F3C70880B208FBBC
:1009E0000075D14F5FFA89F4A04598BFBDE8F88340
:1009F0000026082E0AD0285DB0400006384658BFB1
:100A00000230008800F0D0FB0136F2E709F101095D
:100A1000E8E700BF2DE9F84FDFF8ACA7DFF87C87E7
:100A2000DFF874978B46054600269BF8002012B32A
:100A3000DAF80010B0B28B88C9881844B8F80030D2
:100A4000984288BF0D44AFB2B9F800400F44A742A6
:100A500088BF0025A9B2984288BF0026A74288BF58
:100A60000026B0B2FFF7A2FFDAF800000BF1010B8D
:100A700080880644D9E7BDE8F88F00BF1C0000203D
:100A80002DE9F04F8DB00C910146032016464FF032
:100A900000090193A0EB4202099133B20FFA89F0E9
:100AA00098420A9300F3AC80019809EB0103049289
:100AB000CDE9026900284CD00C980893A0EB0902FC
:100AC00048440690A1EB0900079205900A990FFA95
:100AD00089F088427CDC0C98169DDFF82CA14844F4
:100AE0002A4686B298B231460B90D04705983146D7
:100AF0002A4687B23846D047DDF824802A46A8EB3C
:100B0000090084B2069886B220463146D04707983D
:100B10002A461FFA80FB20465946D0470C982A46A1
:100B2000A0EB090084B238462146D0470B982146F5
:100B30002A46D04709EB080059462A4684B2204687
:100B4000D047204631462A46D047089B09F1010983
:100B5000BCE7DDF830B0DDF858802B4F8A4606EB55
:100B60000B00424684B298B221460B90B847AAEBDC
:100B700009004D46214642461FFA80F94846B847CB
:100B8000AAEB06003C46424687B205EB0B0081B259
:100B900038460A91A047ABEB0500424685B238467D
:100BA0002946A047ABEB0600424687B24846394685
:100BB000A0470B9839464246A04706EB0A00294653
:100BC000424686B23046A0470A9930464246A04780
:100BD000049ADDF80C9010B209F10109B0F1FF3F61
:100BE00007DD029E0A21A9EB0600013E01EB800011
:100BF00003E00620029E00EB8900099902444CE7BD
:100C00000DB0BDE8F08F00BF691100082DE9FE4F5F
:100C10005B1A05460C461846002BA2EB050818BFC8
:100C20004FF0FF30C8BF01200190B8F1000F4046DF
:100C300018BF4FF0FF30C8BF0120009048BFC8F177
:100C40000008002B00D55B421F4698454FF0000975
:100C50004FF0000A4FF0000BC8BF4746781C0290C7
:100C600002991FFA89F0814238BFBDE8FE8F0C9AC5
:100C7000A8B2A1B21E4600F077FA0BEB060001996C
:100C8000334609F10109B842C8BF0C440AEB080118
:100C9000009EB942C8BF3544B0EB070BD8BF8346AE
:100CA000B1EB070AD8BF8A46DAE700002DE9F8431E
:100CB000054608981E4617460C4668B12846214648
:100CC0003A46334600F00EFA174906FB07F009884A
:100CD000BDE8F84300F02AB8E819DDF82480DFF811
:100CE000309D21462346013887B22846CDF8008042
:100CF0003A46C847A0193A46CDF80080013886B276
:100D0000284631463346C847284621462A463346B8
:100D1000CDF80080C847384621463A463346CDF8DC
:100D20000080C847BDE8F883B4000020B0B5054690
:100D30002C200C4600F034FA25B1204600F034FA9D
:100D4000013DF9E7B0BD000007283AD810B51D49AC
:100D500010F001024FF036034FF0F002087008BFA8
:100D60004FF4A0728A804FEA40104FF4A07200F155
:100D7000080008BFF0224A804FF0D84213804FF09D
:100D8000DA4318802A2010800020188018804C88B0
:100D9000013CA4B2240A1C804C88013CE4B21C80B3
:100DA0002B241480188018808888013880B2000AAB
:100DB000188088880138C0B218802C201080BDE8C7
:100DC00010407047040000202DE9F04F97B04FF419
:100DD000B0700121012600F041FABB48BB4D08ACC0
:100DE000BB4F214608902846B8474FF400402146A3
:100DF000ADF820002846B84728462146ADF82060C7
:100E0000B84702202146ADF820002846B847802088
:100E100005F580662146ADF820003046B8474FF40E
:100E2000807930462146ADF82090B8474FF4007ADB
:100E300030462146ADF820A0B8474FF480683046D0
:100E40002146ADF82080B8474FF400602146ADF848
:100E500020003046B8474FF4805B30462146ADF85D
:100E600020B0B8474FF400502146ADF8200030467E
:100E7000B8474FF480402146ADF820003046B847CF
:100E80004FF400402146ADF820003046B8472846D0
:100E90002146ADF82090B84728462146ADF820A05D
:100EA000B84728462146ADF82080B84789482146F2
:100EB00008902846B8474FF0200828462146ADF84C
:100EC0002080B84705F540652146ADF820B028469A
:100ED000B84704202146ADF820003046B8477E4888
:100EE000214608902846B8477C4821460890284665
:100EF000B8474FF48070012100F0A4F94FF0805002
:100F000000244FF006094FF0010A079001A8CDF820
:100F10000C90CDF804A00694CDE9044402941690F8
:100F2000CDE914400820CDE91244CDE9104BCDE9BC
:100F30000E444FF0100B0C940A9008A8CDF82CB07A
:100F4000CDE90894FFF74CFC06200121FFF736FCA1
:100F500000F0F2F80120FFF705FD4FF0D846CF2052
:100F60004FF0DA4730214FF0030E4FF0390CC02319
:100F7000C525E122308081203C8038803980ED21F8
:100F80003180642139801221A7F800E0398038804F
:100F9000E820B6213080852038807820A7F800B07E
:100FA0003880CB2030802C20A7F800C03880342037
:100FB0003C80388002203880F7203080EA20A7F873
:100FC00000804FF011083080B1203C803C803080A0
:100FD0001B203C80388031800A213980A221398051
:100FE000338035233B80C1233380A7F800803580D0
:100FF000452509233D803D80C72535803980F22174
:1010000026253180E0213C803580A7F800A04FF0F4
:10101000170A31800F2139803D8024253D800B2522
:101020003D800E253D8054253B803D80A8253D8098
:1010300046253D800C253D80A7F800A03B80072376
:1010400039803B803C80328019223C803A80388055
:101050000420472238802A20A7F800B03B8038803F
:101060003A803022A7F800C0A7F800E0A7F8009067
:10107000A7F800903A8038223A80398036213180B2
:10108000C82139803080EF203C803C803C80388013
:101090002B20308001203C803C8038803F203880ED
:1010A0003A203080552038800D48A6F80080FFF7A0
:1010B00073FC292030800620FFF746FE35803888F3
:1010C000388817B0BDE8F08F0040031800140140C5
:1010D00091080008100003180008031040000310D6
:1010E000FCBF02002DE9F04107462A20984616462B
:1010F0000C4600F055F80F4D380AA847F8B2A8473B
:10110000B819461EC6F30F20A847F0B2A8472B20F7
:1011100000F046F8200AA847E0B2A84704EB080010
:10112000441EC4F30F20A847E0B22946BDE8F041B1
:10113000084700BFA911000810B50A4C4FF4006120
:101140002046FFF709FC40F6FF20FFF725FC20466C
:101150004FF40061FFF702FC40F6FF20BDE81040AD
:10116000FFF71ABC0020014010B514460B4A128844
:1011700082420FD9084A12888A420BD92246234656
:10118000FFF7B0FF134904FB04F00988BDE81040E5
:10119000FFF7CCBD10BD00BF0800002006000020F6
:1011A0004FF0D841088070474FF0DA41088070470F
:1011B00005480068704700BF064A5180108070479C
:1011C00001490860704700BF1C00002001490880E9
:1011D000704700BFB4000020FEE7704770B5C278CA
:1011E0001149A2B1154A0723126845788678047818
:1011F00023EA12220F23D340C2F10402334005FA3E
:1012000002F21A430B19120183F8002300E0803127
:101210000078012300F01F02C0F3421003FA02F22B
:1012200041F8202070BD00BF00E100E00249084302
:1012300002490860704700BF0000FA050CED00E0AD
:1012400070470000044A002911680CBF21EA000021
:1012500008431060704700BF14100240044A002980
:1012600011680CBF21EA000008431060704700BFFE
:10127000181002409B489C4A016841F0010101603E
:1012800041681140994A416001681140016001685C
:1012900021F480210160416821F4FE0141604FF496
:1012A0001F018160704700BF10B54A490A6802F00B
:1012B0000C03164A082B0BD10B68C3F383430C684D
:1012C0000233E40302D50C68A40300D5104A5A4344
:1012D0000260104C0B68C3F30313E35CDA40426016
:1012E0000B68C3F30223E35C22FA03F383600B6809
:1012F000C3F3C223E35CDA40074BC2600968C1F361
:101300008131595CB2FBF1F1016110BD00127A002C
:1013100000093D00302600082C26000801227149F2
:10132000B2EB501F04D04209022A14BF24312031ED
:10133000096800F01F0021FA00F000F0010070477A
:101340002448006800F00C00704700BF21490A687B
:1013500022F0F00210430860704700BF6149B0F509
:10136000803F0A6822F480320A600A6822F48022F0
:101370000A6004D0B0F5802F04D14FF4A0200A6891
:1013800010430860704700BF12490A6822F4E06207
:1013900010430860704700BF0E490A6822F460528B
:1013A00042EAC0000860704701490860704700BF0A
:1013B00060004242084307490A6822F47C12104345
:1013C0000860704703490A6822F00302104308606E
:1013D000704700BF0410024081B0002000904148D7
:1013E0000168009A013289030092009902D4B1F594
:1013F000A06FF5D10068C0F3404001B0704700BF56
:10140000704700F071BB000082B03648364A016870
:1014100041F00101016041681140344A41600168B6
:1014200011400160016821F480210160416821F4CC
:10143000FE0141604FF41F01816000210191009184
:10144000016841F480310160016801F400310091CC
:10145000019901310191009919B90199B1F5A06F74
:10146000F2D10168890354BF002101210091009944
:10147000012930D11E490A6842F010020A600A6848
:1014800022F003020A600A6842F002020A60416820
:10149000416041684160416841F480614160416858
:1014A00021F47C114160416841F4E8114160016818
:1014B00041F08071016001688901FCD5416821F02B
:1014C00003014160416841F002014160416801F05F
:1014D0000C010829FAD107484FF00061016002B001
:1014E000704700BF001002400000FFF8FFFFF6FE4B
:1014F0000020024008ED00E010B5504C40F22551AC
:10150000204600F019F840B1204600F099F8C1B229
:101510002046BDE8104000F097B810BD8289002930
:1015200042F4005308BF22F40053838170470088BF
:10153000084018BF0120704701F01F02012303FA81
:1015400002F2C1F34213022B06D0012B14BF00F1AB
:10155000140300F10C0301E000F110031B88008864
:10156000090AC84012EA030118BF01210840704768
:1015700010B501F01F03012404FA03F3C1F3421470
:101580001421022C08BF1021012C08BF0C21002AB5
:1015900042580CBF9A431A43425010BD70B586B0F2
:1015A00004460D46C88801AE218A21F44051084303
:1015B0004EF6F3112082A0890840A98808432989A2
:1015C000084369890843A081A889A18A21F4407150
:1015D0000843A0823046FFF767FE184906F108006D
:1015E00002226FF063038C4208BF06F10C00192140
:1015F00000684843B4F90C10002948BF012229684B
:1016000004259140B0FBF1F06421B0FBF1F202FB44
:101610000300B4F90C30002B48BF0325A84032303A
:10162000002BB0FBF1F04FF00F0148BF072108403D
:1016300040EA0210208106B070BD00BF00380140B2
:1016400080886FF35F2070476FF35F218180704760
:10165000FEE71CB5044600200190FFF70BFE4FF497
:101660008030FFF77BFEFFF7B7FE0190019801285D
:1016700023D11020FFF78EF80220FFF795F8002005
:10168000FFF764FE4FF48060FFF77EFE0020FFF757
:1016900083FE4FF480302146FFF78CFE0120FFF7D8
:1016A00083FE3920FFF73AFE0028FAD00220FFF728
:1016B00089FEFFF745FE0828FBD11CBD1CB504467A
:1016C00008460121ADF804208DF80730FFF7C6FD6C
:1016D00001A92046FFF7DCF81CBD000010B5084C3E
:1016E0000421012204232046FFF7E8FF04F50060EF
:1016F00010214FF400520423BDE81040FFF7DEBF75
:1017000000080140B0B5F44C064D20212046A84702
:1017100020460121A847204602212A46BDE8B040C4
:10172000104700BF5D090008B0B50C460546032A06
:1017300005D0022A08D0012A18BFB0BD0AE0284609
:101740002146FFF704F928B128462146BDE8B040FC
:10175000FFF702B928462146BDE8B040FFF7FEB8C2
:10176000BCB5054601201446ADF804208DF80730BD
:101770008DF8060008460121FFF770FD01A92846F3
:10178000FFF786F828462146FFF7E8F8BCBD0000C1
:101790002DE9FE4FDFF8648245F6A8404FF60C6154
:1017A000C0479748DFF85CB200210388BBF80020EF
:1017B0000020FFF7E3F8944F45F6A840B847BBF880
:1017C0000020DFF848920125002000211923CDE9EF
:1017D0000055C84747F6CF30B847BBF80020022075
:1017E0008B4C1921192300900020A0474CF67960FA
:1017F000B847BBF8002000201B211B230095A04701
:101800004FF6FF702646B847BBF800100324132399
:101810000094A1F114000F398AB280B21321B047AD
:10182000BBF800100C230094A1F119000A398AB208
:1018300080B20C21B047BBF8001005230094A1F141
:101840001C0007398AB280B20521B047714C724E34
:101850002046B0474EF6387045F6A841C047FFF71E
:10186000A7FC734A6DA1002090472046B047002096
:101870004FF60C61C047FFF79BFCC0886C4A6DA116
:1018800000EB400080B2904745F6A840B847BBF84F
:1018900000004FF0000A41211E23CDE900A51438B5
:1018A00082B20A20C8474CF21360B847BBF8000068
:1018B00042211D23CDE90055153882B20B20C847BF
:1018C000554E2046B0474EF6387045F6A841C04701
:1018D00045F6A840B847B4206E2132221E23CDE938
:1018E0000055C8474FF6FF70B847B4206E2132222A
:1018F0001E23CDE900A5C8472046B0474FF4484015
:101900004FF60C61C047FFF753FCC088484A4EA110
:1019100000EBC00080B290474FF214504FF60C61BC
:10192000C0474E4CD220B4210A2201230095A04783
:1019300047F6CF30B847D220B4210A2200230095C1
:10194000A04743F2FA504FF60C61C047D220CD2198
:101950000A2201230095A04747F6CF30B847D2208E
:10196000CD210A2200230095A0473D48B0474BF601
:10197000AA104FF60C61C047FFF71AFCC0882C4A2A
:1019800038A1C0EBC00080B2904743F265004FF62B
:101990000C61C047FFF70CFCC088254A35A1C00088
:1019A00080B290474AF23450B847BBF80020184C38
:1019B0000020E621E6230095A0474BF6D7204FF6FE
:1019C0000C61C047FFF7F4FBC088194A2DA100EB5A
:1019D0008000400080B2904742F25F304FF60C61C9
:1019E000C047FFF7E5FBC088114A29A100EB400082
:1019F000800080B203B0BDE8F04F1047B911000875
:101A00000800002006000020CD110008AD0C0008E1
:101A10000D0C000814000020C111000857616E670A
:101A200071692054656C6570686F6E653A000000DE
:101A3000150A00082020506572736F6E6E616C206D
:101A40004E6577733A00000020486176652047694B
:101A5000726C667269656E643F000000810A00085E
:101A60000C000020202020202020202059657321F8
:101A7000000000002020202020202020204E4F2188
:101A8000000000002020204D79204C4F56452000BA
:101A900020486920323032312D382D313420000079
:101AA000B0B5984C0D4D0821202210232046A847A0
:101AB0002046082120221023A84720460821012281
:101AC0001023A8472046082102221023A847BDE87A
:101AD000B040FFF717BE00BF000C014061170008BF
:101AE0004FF4E010FFF7B5BD0748D0E90012531CD2
:101AF0008A42436006D9002141600448017841F0E0
:101B000001010170704700BFAC000020A800002058
:101B1000B0B51A4A1A4B01290ED11A491A4D0C6850
:101B2000B4FBF5F4013C5460F0241C700024946074
:101B3000072414600C6808E0124C0229246804D1C0
:101B40004FF47A71B4FBF1F403E00021B1EB146FB0
:101B500007D1611E5160F0211970002191600721A9
:101B600011600021814204D01368DB03FCD50131F0
:101B7000F8E7106820F001001060B0BD10E000E050
:101B800023ED00E02000002040420F0010B586B099
:101B90004FF480400121FFF761FB00202B4C01A98D
:101BA000ADF8100002904FF4E13001904FF4402066
:101BB00003902046FFF7F2FC4FF4A060FFF736FBDE
:101BC0000848059005A8FFF709FB204640F225517B
:101BD0000122FFF7CDFC20460121FFF79FFC06B054
:101BE00010BD00BF25010101BCB504200121FFF794
:101BF00035FB0748074C01AD294601902046FEF70A
:101C000047FE0548294601902046FEF741FEBCBD2F
:101C100000020318000801400004030480B5FFF728
:101C2000E3FFBDE88040FFF7B1BF0000B0B5074D4E
:101C30000446C1B22846FFF707FD28468021FFF77A
:101C400076FC0028F9D02046B0BD00BF0038014026
:101C500082B0FFF745FFFFF723FFFFF73FFDFFF7D8
:101C6000B3F8ADF80600FFF7D9FF11A000F0CCFCE7
:101C7000BDF806201EA019A1052A08BF084600F0DD
:101C800043F8FEF713FDFFF783FD1E4CFFF73AFD07
:101C90004FF4FA700221FFF73BFF20460121FEF7C7
:101CA0005BFE4FF4FA700221FFF732FFEEE700BF50
:101CB0000A0A0D0A2A2A2A2A2A2A2A2A2A2A2049EC
:101CC00043CFB5CDB3BFAACABCD4CBD0D0202A2A2B
:101CD0002A2A2A2A2A2A2A2A0D0000000A2D2D3E05
:101CE0004C434420D4CBD0D0D5FDB3A3000000009A
:101CF0000A2D2D3E4C434420D4CBD0D0D2ECB3A3FC
:101D000000000000000C01400FB4054B10B503A902
:101D1000044A029800F0DAF810BC5DF814FB0000E9
:101D20002D1C00080000002002E008C8121F08C196
:101D3000002AFAD170477047002001E001C1121F4C
:101D4000002AFBD1704700002DE9FF5F82B000211F
:101D5000DDE90430020DDDF840B0034318D044F64D
:101D60001050A2F2FF3242431514119801281FD0DF
:101D7000A5EB0B00401C5FEA000A4FF000064E4F37
:101D8000DFF83891B046504615D5CAF1000413E08B
:101D9000119801244AA3012801D16FEA0B0102988E
:101DA000119AC0E90031C0E9024206B0BDE8F09FD7
:101DB000CBF10000DFE704460021404A491842EB1E
:101DC0000450CDE9001012E0E00707D032463B4650
:101DD00040464946FEF7B6FA8046894632463B46BB
:101DE00010461946FEF7AEFA06460F466410002C60
:101DF000EAD1DDE90401DDE90023BAF1000F06DADA
:101E0000FEF7A0FA42464B46FEF79CFA05E0FEF7C5
:101E10000BFB42464B46FEF707FB04460E460022EC
:101E2000284BFEF789FB03D84FF0FF30014607E04F
:101E30000022254B20463146FEF7DDF9FEF763FB15
:101E4000102409E0002C0ADB0A220023FEF7A2F985
:101E5000039B30321A55641E50EA0102F2D1641C11
:101E6000039AC4F111031444119A012A03D00122E8
:101E700008430DD10AE0084304D000204FF0110BB5
:101E8000119072E7A3EB0B056D1E0DE05B4504DDC1
:101E90004FF0000205F1010504E003DA4FF0000203
:101EA000A5F10105002AECD002981199C0E9023190
:101EB000C0E9004579E70000000014400000F03F51
:101EC000300000000000F0430000E03F2DE9FF4F2C
:101ED00095B09B468946064600250FE2252877D116
:101EE00000242746F84A0121059400E0044316F82F
:101EF000013F203B01FA03F01042F7D130782A2845
:101F000011D06FF02F033078A0F13002092A16D8D3
:101F1000059A44F0020402EB820203EB42021044F1
:101F2000761C0590EFE759F8042B0592002A03DA96
:101F3000504244F40054059044F00204761C30787A
:101F40002E2816D116F8010F44F004042A280DD0CB
:101F50006FF02F023078A0F13003092B09D807EB7E
:101F6000870302EB4303C718761CF3E759F8047B99
:101F7000761C30786C280FD006DC4C2817D06828E7
:101F80000DD06A2814D104E0742810D07A280FD11B
:101F90000DE044F400140AE044F4801401E044F439
:101FA00040147278824202D104F58014761C761CAB
:101FB000307866280BD013DC582877D009DC00284D
:101FC00075D04528F6D04628F4D047281AD19DE18F
:101FD00018E0632835D0642879D0652812D195E1BE
:101FE000702873D008DC6728F1D069286FD06E287C
:101FF0000DD06F2806D1B5E073282CD0752875D088
:10200000782874D05A46179990476D1C75E1C4F32F
:102010000250022809D003280DD0D9F80010042856
:102020000DD00D6009F1040967E1D9F80010EA1735
:10203000C1E90052F6E7D9F800100D80F2E70D7003
:10204000F0E719F8041B8DF8001000208DF801004E
:10205000EA46012003E059F804AB4FF0FF30610776
:102060004FF0000102D40DE008F101018846B942A9
:102070000FDA8045F8DB1AF808100029F4D108E0DF
:1020800008F1010188468142FADB1AF8081000299C
:10209000F6D105985B46A0EB080721463846179A0B
:1020A00000F094FA284400EB080507E04DE029E130
:1020B0000DE01AF8010B5A4617999047B8F101083C
:1020C000F7D25B4621463846179A13E142E00A22CE
:1020D0000092C4F302524FF0000A022A08D059F8C5
:1020E00004CB032A4FEAEC710AD00DE029E02AE084
:1020F00009F1070121F00702F2E802C1914609E067
:102100000FFA8CFC4FEAEC71042A03D14FFA8CFCD5
:102110004FEAEC71002907DA0A460021DCF1000CD5
:1021200061EB02012D2202E0220504D52B228DF85D
:102130000420012203E0E20701D02022F7E79046C5
:1021400059E00A2102E010220DE010214FF0000AB0
:1021500000910BE010224FF0000A44F0040408271D
:10216000009203E008224FF0000A0092C4F30252EA
:10217000022A05D059F804CB0021032A08D009E02F
:1021800009F1070121F00702F2E802C1914605E0DA
:102190001FFA8CFC042A01D10CF0FF0C4FF0000850
:1021A000220728D5702806D0009B83F0100353EA3D
:1021B0000A0305D00EE040228DF80420012208E039
:1021C0005CEA010206D030228DF804208DF805006B
:1021D00002229046009B83F0080353EA0A030AD1C7
:1021E0005CEA010201D1620705D530228DF8042096
:1021F0004FF001087F1E582804D034A003900EA889
:1022000002900DE036A0F9E753466046009AFDF7CC
:10221000C1FF84460398825C0298401E02900270BF
:102220005CEA0100F0D1029806A9081A00F1200A20
:10223000600702D524F4803400E00127574502DD11
:10224000A7EB0A0000E0002000EB0A0100900598CF
:102250004144401A0590E00306D45B462146179A94
:10226000059800F0B3F90544002706E001A85A4696
:10227000C05D179990476D1C7F1C4745F6DBE00356
:102280000CD55B462146179A059800F09FF9054446
:1022900004E030205A46179990476D1C0099481E5B
:1022A00000900029F5DC08E0029802995A4600786F
:1022B000491C0291179990476D1CBAF10001AAF1CF
:1022C000010AF1DC65E100000928010030313233F8
:1022D0003435363738396162636465660000000062
:1022E000303132333435363738394142434445464C
:1022F0000000000000F058F90544761C30780028F2
:102300007FF4ECAD19B02846BDE8F08F620700D429
:10231000062709F1070222F0070CFCE80223E14638
:1023200003F000485FEA080C02D00FF2702C0DE0B9
:102330005FEA045C02D50FF2682C07E05FEAC47C18
:1023400002D00FF2602C01E0AFF2700C4FF0FF38BA
:1023500023F00043CDF850C065280CD006DC45289A
:1023600009D046281DD047283DD13DE0662818D029
:1023700067287ED138E00021112F01DB112000E019
:10238000781CCDE9000106A90EA8FFF7DDFCDDE908
:102390000F010E9A03910021009207F1010A0491A6
:1023A0004DE04FF000400097CDE9011006A90EA8BE
:1023B000FFF7CAFCDDE90F0203920E9B1199002280
:1023C000DDF80CA00093049211B9791C00EB010A0E
:1023D000B7EB0A0004D4C0F1FF3007F1010A049002
:1023E000AAEB0700019044E0012F00DA0127002149
:1023F000112F01DD112000E03846CDE9000106A9CA
:102400000EA8FFF7A1FCDDE90F010E9A0391002150
:1024100004910092BA4621070CD40399514500DA81
:102420008A46BAF1010F05DD009AAAF10101515C5B
:10243000302908D0B84202DA10F1040F06DA01217F
:10244000CDE9011015E0AAF10101E9E7002805DC5A
:10245000049901440491AAEB000102E0411C51459A
:1024600000DD8A460499401A401C01904FF000405C
:102470000290200704D40198504501DBCDF8048078
:1024800000208DF84F0002980DF14F07B0F1004F7A
:1024900025D02B200E9002984FF0020800280CDA6D
:1024A000404202902D200E9007E00A210298FDF78D
:1024B0005BFE3031029007F8011DB8F10001A8F170
:1024C0000108F2DC02980028EFD1791E0E980870FE
:1024D000307800F0200040F0450007F8020D12A807
:1024E000C01B00F107081498007800B1012000EB30
:1024F0000A01019801EBE07105984144401A401E21
:102500000590E00306D45B462146179A059800F033
:102510005DF805441498007818B15A461799904709
:102520006D1CE00324D55B462146179A059800F000
:102530004DF805441CE00498002807DBDDE90301A1
:10254000884203DD0098405C179901E0179930201C
:102550005A469047049805F10105401C04900198E3
:10256000401E019004D12E205A46179990476D1CA9
:10257000BAF10001AAF1010ADDDC05E017F8010B50
:102580005A46179990476D1CB8F10001A8F101084F
:10259000F4DC5B462146179A0598ABE62D00000057
:1025A0002B000000200000002DE9F041044600252A
:1025B0001E461746880404D405E039462020B0475B
:1025C0006D1C641EF9D52846BDE8F0812DE9F04167
:1025D000044600251E469046C80301D5302700E07A
:1025E0002027880404D505E041463846B0476D1CD5
:1025F000641EF9D52846BDE8F08100000149FFF7C7
:1026000015BB00000000002010B5044601E0FFF7F4
:102610000DFB14F8010B04490028F8D1BDE8104067
:102620000A20FFF703BB0000000000200204060898
:102630000000000001020304010203040607080968
:10264000000000000000000000000000000000008A
:10265000000000000000000000000000000000007A
:10266000000000000000000000000000000000006A
:1026700000000000000000000000038001800180D5
:1026800001800180018001800180018001800000C3
:10269000000003C003C000000000000000000000B4
:1026A000000000000000000000000E700E700E70B0
:1026B0000C300000000000000000000000000000DE
:1026C000000000000000000000000000000000000A
:1026D000000000000000000000000000061806389E
:1026E00006307FFE0C300C300C300C307FFE0C605E
:1026F0001C6018601860000000000000000000006E
:10270000000000000000000000C000C00FF83CC83E
:1027100031C031803D801F8003F001F8031C030CA1
:10272000031C3FF83FE00700060000000000000027
:1027300000000000000000001C007E0E630C631807
:1027400063307E6000C001800300077C0EE61CC67B
:1027500018C630C6607C00000000000000000000C9
:10276000000000000000000000000FE01CF03870C6
:1027700038701C601FC00F003F8C71CC60EC607C17
:1027800070383CFC1FCE000000000000000000007C
:102790000000000000000000000003C00180018074
:1027A00001800000000000000000000000000000A8
:1027B0000000000000000000000000000000000019
:1027C0000000000000000000003000E001C00180B7
:1027D00003000700060006000E000E000E000E00AB
:1027E000060007000300038001C000E00030000085
:1027F00000000000000000000C00060003800180C3
:1028000001C000E0006000600070007000700060B7
:10281000006000E000C00180038006000C000000A2
:1028200000000000000000000000018011881DB8B9
:1028300003C007E03DBC01880180000000000000EB
:102840000000000000000000000000000000000088
:102850000000000000000000000000000000000078
:10286000018001800180018001807FFE0180018064
:102870000180018000000000000000000000000056
:102880000000000000000000000000000000000048
:102890000000000000000000000000000000000038
:1028A00003C003C001C001C003801F00000000007E
:1028B0000000000000000000000000000000000018
:1028C000000000000000000000000FF00000000009
:1028D00000000000000000000000000000000000F8
:1028E00000000000000000000000000000000000E8
:1028F00000000000000000000000000000000000D8
:1029000003C003C003C0000000000000000000007E
:102910000000000000000000000000180038003037
:10292000006000E000C001C0018003000300060059
:102930000E000C001C001800300000000000000019
:102940000000000000000000000001800FF01C38B3
:10295000381C301C707E70EE738E7E0E7C0C300C3A
:10296000381C1E780FE0000000000000000000008E
:1029700000000000000000000000000007C01FC0B1
:1029800039C001C001C001C001C001C001C001C007
:1029900001C03FFC3FFC0000000000000000000000
:1029A0000000000000000000000003801FF0183845
:1029B0000038001800380038007001E0038007007C
:1029C0001C003FFC3FFC0000000000000000000075
:1029D0000000000000000000000007801FF0003829
:1029E00000380038003007E007F00038001C001CF9
:1029F000001820F83FE00000000000000000000088
:102A000000000000000000000000000000F001B025
:102A1000033007300E301C30383070307FFE7FFEC0
:102A20000030003000300000000000000000000016
:102A30000000000000000000000000001FF8180067
:102A40001800180018001FE000F8001C001C001CF3
:102A5000003800F01FC0000000000000000000006F
:102A600000000000000000000000000003F80F005C
:102A70001C001800300037F83C3C300C300C380C8F
:102A8000381C1E380FF0000000000000000000009D
:102A90000000000000000000000000003FFC001CDF
:102AA000001800380070006000E001C00180038061
:102AB000070006000E0000000000000000000000FB
:102AC0000000000000000000000003C01FF8381CD8
:102AD000381C381C1C380FF007F01C78381C300CE0
:102AE000381C3C380FF0000000000000000000001F
:102AF0000000000000000000000003801FF03838D4
:102B0000301C701C700C380C1FFC0FCC001C001803
:102B100000701FE01F8000000000000000000000A7
:102B200000000000000000000000000000000000A5
:102B3000000003C003C0018000000000000000008E
:102B400003C003C003C0000000000000000000003C
:102B50000000000000000000000000000000000075
:102B6000000003C003C0018000000000000000005E
:102B700003C003C001C001C003800F0000000000BB
:102B80000000000000000000000000000000000045
:102B9000003800F001C007001E0038000E0007805A
:102BA00001C00070003000000000000000000000C4
:102BB0000000000000000000000000000000000015
:102BC0000000000000003FFC000000003FFC3FFC54
:102BD00000000000000000000000000000000000F5
:102BE00000000000000000000000000000000000E5
:102BF0001C000F00038001E00078001C007001E061
:102C000003800E000C000000000000000000000027
:102C1000000000000000000000000FC000F00038BD
:102C200000380038003803F0038003000300000080
:102C30000000078007800000000000000000000086
:102C4000000000000000000000E007F80C0C18066F
:102C50003006700363F36633C673CC63CC62CC6614
:102C6000CCE6C7FCE0006000700038101FF00000E8
:102C700000000000000000000000000003C007E0AA
:102C800006E00E700E700C301C3818183FFC3FFC2C
:102C9000700E600EE0070000000000000000000061
:102CA0000000000000000000000000003FF0383885
:102CB000381C381C38383FF03FF8381C380C380CBA
:102CC000381C3FF83FE0000000000000000000005A
:102CD0000000000000000000000000E007FC1E04EF
:102CE000380038003000700070007000300038008C
:102CF0003C001F9C07FC00000000000000000000DA
:102D00000000000000000000000000003FF03078EC
:102D1000301C300C300E300E300E300E300E301CA9
:102D200030383FF03FC0000000000000000000000D
:102D30000000000000000000000000001FF8180064
:102D40001800180018001FF81FF8180018001800C5
:102D500018001FF81FF8000000000000000000002D
:102D60000000000000000000000000001FF8180034
:102D70001800180018001FF81FF818001800180095
:102D800018001800180000000000000000000000FB
:102D90000000000000000000000000F007FC1E041E
:102DA000380030007000700070FC700C700C300C3B
:102DB000380C1F1C07FC0000000000000000000091
:102DC000000000000000000000000000300C300C8B
:102DD000300C300C300C3FFC3FFC300C300C300C15
:102DE000300C300C300C000000000000000000002F
:102DF0000000000000000000000000003FFC018017
:102E000001800180018001800180018001800180BA
:102E100001803FFC3FFC00000000000000000000BB
:102E20000000000000000000000000001FF0003063
:102E30000030003000300030003000300030003012
:102E400000701DE01FC00000000000000000000036
:102E5000000000000000000000000000381C387076
:102E600038E039C03B803F003F003B8039C038E04C
:102E700038703838381C00000000000000000000E6
:102E80000000000000000000000000001C001C000A
:102E90001C001C001C001C001C001C001C001C0052
:102EA0001C001FFC1FFC00000000000000000000D0
:102EB000000000000000000000000000381C7C3C06
:102EC0006C3E6E6E666E66CE63C663866186600615
:102ED00060066006600600000000000000000000C0
:102EE0000000000000000000000000003C0C3C0C52
:102EF0003E0C360C330C338C318C31CC30EC306CD6
:102F0000307C303C301C000000000000000000005D
:102F10000000000000000000000001C00FF81C3C91
:102F2000381C700E700E60066006700E700E700C0D
:102F3000381C1E780FE000000000000000000000B8
:102F40000000000000000000000000003FF0383CDE
:102F5000381C380C380C381C38783FE03800380002
:102F600038003800380000000000000000000000B9
:102F70000000000000000000000001C00FF81C3C31
:102F8000381C700E700E60066006700E700E700CAD
:102F9000381C1E780FE0018001C000FF003C0000DB
:102FA0000000000000000000000000003FF0383882
:102FB00038183818383838F03FC038E038703838AA
:102FC0003838381C380E00000000000000000000F7
:102FD0000000000000000000000001E00FF83800D1
:102FE000380038003C001F8003F00078001C001CF3
:102FF000001C38783FE000000000000000000000E6
:103000000000000000000000000000007FFE0180C2
:1030100001800180018001800180018001800180A8
:10302000018001800180000000000000000000001D
:10303000000000000000000000000000300C300C18
:10304000300C300C300C300C300C300C300C300CA0
:10305000381C1C380FF000000000000000000000C9
:10306000000000000000000000000000E006700EFC
:10307000700E381C381C1C181C380C300E70066082
:1030800007E003C003C000000000000000000000D3
:103090000000000000000000000000006006600664
:1030A000600660066186638673C673CE766C366C86
:1030B0003C3C3C3C381C00000000000000000000CC
:1030C000000000000000000000000000301C381864
:1030D0001C380E7007E003C003C007E00E701C38F8
:1030E0001838381C700E00000000000000000000BE
:1030F000000000000000000000000000700E700CD6
:10310000381C1C380E70066007E003C00180018087
:10311000018001800180000000000000000000002C
:103120000000000000000000000000003FFC001C48
:103130000038007000E001C0038007000E000C00A2
:1031400018003FFC3FFC00000000000000000000F1
:10315000000000000000000007F007F00600060075
:10316000060006000600060006000600060006002F
:1031700006000600060006000600060007F0000034
:103180000000000000000000000018001C000C00FF
:103190000600070003000380018001C000C000603A
:1031A0000070003000380018000C00000000000023
:1031B00000000000000000000FE00FE00060006071
:1031C00000600060006000600060006000600060FF
:1031D0000060006000600060006000600FE00000C0
:1031E00000000000000000000000000003C006C056
:1031F00006600C301818301C0000000000000000B1
:1032000000000000000000000000000000000000BE
:1032100000000000000000000000000000000000AE
:10322000000000000000000000000000000000009E
:10323000000000000000000000000000FFFF000090
:10324000000000000000000000001E0003800000DD
:10325000000000000000000000000000000000006E
:10326000000000000000000000000000000000005E
:10327000000000000000000000000000000000004E
:1032800000001FF01038001C001C0FFC1C1C381C18
:10329000381C3CFC1FDC00000000000000000000A7
:1032A0000000000000000000000038003800380076
:1032B00038003BF83E1C3C1C380C380C380C380CE1
:1032C000381C3C781FE000000000000000000000F7
:1032D00000000000000000000000000000000000EE
:1032E000000007F80E001C003800380038003800D5
:1032F0001C000F1807F8000000000000000000008C
:1033000000000000000000000000001C001C001C69
:10331000001C0FFC1C1C381C301C301C301C301CCA
:10332000383C1CFC0F9C0000000000000000000066
:10333000000000000000000000000000000000008D
:1033400000000FF01C38381C300C3FFC30003000FF
:1033500038001E0C07FC0000000000000000000008
:103360000000000000000000003C01FE038003009C
:10337000030003007FFC7FFC030003000300030045
:103380000300030003000000000000000000000034
:10339000000000000000000000000000000000002D
:1033A00000000FFE1C383818381818381FF03B8002
:1033B00030003FF01FFC300E700E381C1FF800006C
:1033C0000000000000000000000038003800380055
:1033D00038003BF83E383C1C381C381C381C381C64
:1033E000381C381C381C00000000000000000000E1
:1033F0000000000000000000018003C003C00000C6
:1034000000001FC001C001C001C001C001C001C057
:1034100001C001C03FFC00000000000000000000EF
:10342000000000000000000000200070007000009C
:1034300000003FF0007000700070007000700070BD
:103440000070007000700070007020E03FC000004D
:103450000000000000000000000018001800180024
:103460001800183C187018E01B801F001B8019E022
:1034700018701838181C0000000000000000000040
:10348000000000000000000000001FC001C001C0DB
:1034900001C001C001C001C001C001C001C001C024
:1034A00001C001C03FFC000000000000000000005F
:1034B000000000000000000000000000000000000C
:1034C00000006F3C79EE71CE718E718E718E718EAF
:1034D000718E718E718E00000000000000000000EF
:1034E00000000000000000000000000000000000DC
:1034F00000003BF83E383C1C381C381C381C381C7B
:10350000381C381C381C00000000000000000000BF
:1035100000000000000000000000000000000000AB
:1035200000000FF01C3C381C700E700E700E700CFA
:10353000381C1E780FE000000000000000000000B2
:10354000000000000000000000000000000000007B
:1035500000003BF83E1C3C1C380C380C380C380C76
:10356000381C3C783FE03800380038003800000054
:10357000000000000000000000000000000000004B
:1035800000000FFC1C1C381C301C301C301C301C74
:10359000383C1CFC0F9C001C001C001C001C000084
:1035A000000000000000000000000000000000001B
:1035B000000019F81F1C1C0C180E18001800180029
:1035C00018001800180000000000000000000000B3
:1035D00000000000000000000000000000000000EB
:1035E00000000FF81C0018001E000FC001F80018A2
:1035F000001818381FF00000000000000000000054
:1036000000000000000000000000000006000600AE
:1036100006007FFC06000600060006000600060005
:103620000700078401FC000000000000000000000B
:10363000000000000000000000000000000000008A
:103640000000381C381C381C381C381C381C381C2E
:10365000383C1CFC0FDC00000000000000000000F3
:10366000000000000000000000000000000000005A
:103670000000700C381C38181C380C300E700660B6
:1036800007E003C003C000000000000000000000CD
:10369000000000000000000000000000000000002A
:1036A0000000600660066186738E73CC33CC366C86
:1036B000366C3C3C3C38000000000000000000007C
:1036C00000000000000000000000000000000000FA
:1036D0000000381C1C380E7007E003C003C007E070
:1036E0000E701C38381E00000000000000000000B2
:1036F00000000000000000000000000000000000CA
:103700000000700C381C38181C380C300E70066025
:1037100007E003C003C0038007000E007C00000028
:103720000000000000000000000000000000000099
:1037300000001FF80038007000E001C0038007009F
:103740000C001FFC3FFC0000000000000000000017
:103750000000000000000000007801F803800380F2
:1037600003800380038003003F003E0003000380CA
:103770000380038003800380038001C000F8000001
:103780000000000001800180018001800180018033
:103790000180018001800180018001800180018021
:1037A0000180018001800180018001800180000092
:1037B00000000000000000001E001F80018001C00A
:1037C00001C001C001C000C000FC007C00C001C0FD
:1037D00001C001C001C001C001C003801F00000082
:1037E00000000000000000000000000000000000D9
:1037F0000000000000001C003F0671CE60FC0000CD
:1038000000000000000000000000000000000000B8
:1038100000000000000000000000000000000000A8
:1038200000000018181818181808000818000000E0
:1038300000000034242424000000000000000000E8
:103840000000000016247F2424247E24240000008D
:10385000000000083E6848681C1612127C10100018
:1038600000000061D296740810162949C6000000B5
:10387000000000003C646438724ACE467F000000BD
:1038800000000018181818000000000000000000D8
:1038900000000004081810303030301010180C04EC
:1038A000000000201008080C0404040C0818102064
:1038B000000000080A341C6A080000000000000034
:1038C0000000000000001818187F181818000000E9
:1038D0000000000000000000000000181808300080
:1038E0000000000000000000003C0000000000009C
:1038F0000000000000000000000000181800000098
:103900000000000206040C080810102020400000EF
:10391000000000003C6642475B7342663C000000CA
:103920000000000018784808080808087E00000019
:10393000000000003C460606040810207E0000003F
:10394000000000007C0606043C0202067C00000029
:10395000000000000C1C14246444FF040400000058
:10396000000000007E6060607E0202067C000000B5
:10397000000000001E306048764242623C000000B9
:10398000000000007E0206040C0818103000000041
:10399000000000003C6242361C6642423C000000CF
:1039A000000000003C664242661A020478000000F3
:1039B00000000000000018180000001818000000A7
:1039C000000000000000181800000018180830005F
:1039D00000000000000004183060100C0600000019
:1039E00000000000000000007E007E0000000000DB
:1039F000000000000000301804060C102000000039
:103A0000000000301C060606181000101000000010
:103A10000000001C224141DDB5A5A5AF94C0403C8B
:103A200000000000181C342426627E43C100000000
:103A3000000000007C4642467C4242427C0000007E
:103A4000000000001E204040404040603E0000005A
:103A5000000000007C464243434342467800000099
:103A6000000000007E6060607E6060607E0000009C
:103A7000000000007E6060607E60606060000000AA
:103A8000000000001E604040CE4242623E00000046
:103A900000000000424242427E4242424200000098
:103AA000000000007E181818181818187E00000072
:103AB000000000007C0404040404044478000000B6
:103AC000000000004244485070584C44420000003E
:103AD0000000000020202020202020203E000000A8
:103AE000000000006266675F5B5BC1C1C10000004F
:103AF00000000000626272525A4A4E4646000000C0
:103B0000000000003C6243C3C3C343623C000000AA
:103B1000000000007C4642424678404040000000E1
:103B2000000000003C6243C3C3C343623C180F0063
:103B3000000000007C6662667C6C646662000000C7
:103B4000000000003E6040601C0602027C00000095
:103B5000000000007F181818181818181800000026
:103B60000000000042424242424242623C000000E9
:103B700000000000C14342622624341C18000000EB
:103B800000000000C1C141495B5B76666600000031
:103B90000000000043663418181C2466C3000000AF
:103BA00000000000C14266341C18181818000000FC
:103BB000000000007E02040C181020607E0000004F
:103BC0000000001C10101010101010101010101C0D
:103BD000000000402020101008080C04060200001D
:103BE0000000003C0C0C0C0C0C0C0C0C0C0C0C3CD9
:103BF00000000000181C246200000000000000000B
:103C0000000000000000000000000000000000FFB5
:103C10000000002010000000000000000000000074
:103C20000000000000003C06023E42467A00000010
:103C30000000004040405C62424242427C00000082
:103C40000000000000001E20604060203E000000D8
:103C50000000000202023E62424242663A00000058
:103C60000000000000003C62427E40603E00000018
:103C70000000000F1810107E10101010100000002F
:103C80000000000000003F66426658403E43423C50
:103C90000000004040405C6242424242420000005C
:103CA0000000001818007808080808087E000000C6
:103CB000000000040C007C040404040404040C78D8
:103CC000000000606060626C7870686462000000F0
:103CD0000000007808080808080808087E000000AE
:103CE000000000000000764B4B4B4B4B4B0000009C
:103CF0000000000000005C624242424242000000BC
:103D00000000000000003C62424342623C000000B0
:103D10000000000000005C62424242427C404040A1
:103D20000000000000003E62424242663A02020287
:103D30000000000000006E726360606060000000C0
:103D40000000000000003E20203C06027C00000035
:103D5000000000001010FE10101010101E000000D7
:103D60000000000000004242424242663A00000069
:103D700000000000000043426624341818000000D0
:103D8000000000000000C1C15B5A5E6666000000D2
:103D900000000000000062261C181C2662000000C3
:103DA00000000000000043426624341C181830E074
:103DB0000000000000007E060C1810207E000000AD
:103DC0000000000E18101010307010101010180E97
:103DD0000000080808080808080808080808080873
:103DE00000000030180808080C0E080808081830F1
:103DF0000000000000000000714B06000000000001
:103E0000203E000800000020A8000000281D000837
:103E1000C83E0008A800002010040000381D00085B
:103E2000000000000600F0004001000040260008ED
:103E300010001800103800080800100014000020BE
:103E400000A24A0400000000000000000000000082
:103E50000000000000000000000000000000000062
:103E600000000000000000000000000003FFFFC091
:103E700007FFFFC00403C0000003C0000003C00030
:103E80000003C00001FFFF0003FFFF000303C000A9
:103E90000003C0000003C0000003C0001FFFFC00BF
:103EA0003FFFFFFE7F807FFE600003FC0000007884
:103EB0000000000000000000000000000000000002
:083EC0000000000000000000FA
:0400000508000131BD
:00000001FF
